{
  "address": "0x903A7Dc88472e06DEe064186CbB037E4C79cfBEF",
  "abi": [
    {
      "anonymous": false,
      "inputs": [
        {
          "indexed": true,
          "internalType": "uint256",
          "name": "batchId",
          "type": "uint256"
        },
        {
          "indexed": false,
          "internalType": "address",
          "name": "actor",
          "type": "address"
        }
      ],
      "name": "ActorAdded",
      "type": "event"
    },
    {
      "anonymous": false,
      "inputs": [
        {
          "indexed": true,
          "internalType": "uint256",
          "name": "batchId",
          "type": "uint256"
        },
        {
          "indexed": true,
          "internalType": "uint256",
          "name": "farmId",
          "type": "uint256"
        }
      ],
      "name": "ProductBatchCreated",
      "type": "event"
    },
    {
      "anonymous": false,
      "inputs": [
        {
          "indexed": true,
          "internalType": "uint256",
          "name": "batchId",
          "type": "uint256"
        },
        {
          "indexed": false,
          "internalType": "enum IProductRegistry.ProductStatus",
          "name": "status",
          "type": "uint8"
        }
      ],
      "name": "ProductStatusUpdated",
      "type": "event"
    },
    {
      "inputs": [
        {
          "internalType": "uint256",
          "name": "batchId",
          "type": "uint256"
        },
        {
          "internalType": "address",
          "name": "actor",
          "type": "address"
        }
      ],
      "name": "addSupplyChainActor",
      "outputs": [],
      "stateMutability": "nonpayable",
      "type": "function"
    },
    {
      "inputs": [
        {
          "components": [
            {
              "internalType": "uint256",
              "name": "farmId",
              "type": "uint256"
            },
            {
              "internalType": "string",
              "name": "productType",
              "type": "string"
            },
            {
              "internalType": "uint256",
              "name": "quantity",
              "type": "uint256"
            },
            {
              "internalType": "string",
              "name": "unit",
              "type": "string"
            },
            {
              "internalType": "uint256",
              "name": "harvestDate",
              "type": "uint256"
            },
            {
              "internalType": "string[]",
              "name": "certifications",
              "type": "string[]"
            },
            {
              "internalType": "string",
              "name": "additionalInfo",
              "type": "string"
            },
            {
              "internalType": "enum IProductRegistry.ProductStatus",
              "name": "status",
              "type": "uint8"
            },
            {
              "internalType": "address[]",
              "name": "supplyChainActors",
              "type": "address[]"
            }
          ],
          "internalType": "struct IProductRegistry.ProductBatch",
          "name": "batch",
          "type": "tuple"
        }
      ],
      "name": "createProductBatch",
      "outputs": [
        {
          "internalType": "uint256",
          "name": "",
          "type": "uint256"
        }
      ],
      "stateMutability": "nonpayable",
      "type": "function"
    },
    {
      "inputs": [
        {
          "internalType": "uint256",
          "name": "batchId",
          "type": "uint256"
        }
      ],
      "name": "getProductBatch",
      "outputs": [
        {
          "components": [
            {
              "internalType": "uint256",
              "name": "farmId",
              "type": "uint256"
            },
            {
              "internalType": "string",
              "name": "productType",
              "type": "string"
            },
            {
              "internalType": "uint256",
              "name": "quantity",
              "type": "uint256"
            },
            {
              "internalType": "string",
              "name": "unit",
              "type": "string"
            },
            {
              "internalType": "uint256",
              "name": "harvestDate",
              "type": "uint256"
            },
            {
              "internalType": "string[]",
              "name": "certifications",
              "type": "string[]"
            },
            {
              "internalType": "string",
              "name": "additionalInfo",
              "type": "string"
            },
            {
              "internalType": "enum IProductRegistry.ProductStatus",
              "name": "status",
              "type": "uint8"
            },
            {
              "internalType": "address[]",
              "name": "supplyChainActors",
              "type": "address[]"
            }
          ],
          "internalType": "struct IProductRegistry.ProductBatch",
          "name": "",
          "type": "tuple"
        }
      ],
      "stateMutability": "view",
      "type": "function"
    },
    {
      "inputs": [],
      "name": "nextProductId",
      "outputs": [
        {
          "internalType": "uint256",
          "name": "",
          "type": "uint256"
        }
      ],
      "stateMutability": "view",
      "type": "function"
    },
    {
      "inputs": [
        {
          "internalType": "uint256",
          "name": "",
          "type": "uint256"
        }
      ],
      "name": "productBatches",
      "outputs": [
        {
          "internalType": "uint256",
          "name": "farmId",
          "type": "uint256"
        },
        {
          "internalType": "string",
          "name": "productType",
          "type": "string"
        },
        {
          "internalType": "uint256",
          "name": "quantity",
          "type": "uint256"
        },
        {
          "internalType": "string",
          "name": "unit",
          "type": "string"
        },
        {
          "internalType": "uint256",
          "name": "harvestDate",
          "type": "uint256"
        },
        {
          "internalType": "string",
          "name": "additionalInfo",
          "type": "string"
        },
        {
          "internalType": "enum IProductRegistry.ProductStatus",
          "name": "status",
          "type": "uint8"
        }
      ],
      "stateMutability": "view",
      "type": "function"
    },
    {
      "inputs": [
        {
          "internalType": "uint256",
          "name": "batchId",
          "type": "uint256"
        },
        {
          "internalType": "enum IProductRegistry.ProductStatus",
          "name": "status",
          "type": "uint8"
        }
      ],
      "name": "updateProductStatus",
      "outputs": [],
      "stateMutability": "nonpayable",
      "type": "function"
    }
  ],
  "transactionHash": "0xe2f0554cb6e96446b8f8d149703cea1ceb5be0152f357931cb6884b6c39fdfc9",
  "args": [],
  "numDeployments": 1,
  "solcInputHash": "cd07ffb4dfed773f41b36cefc5966db8",
  "bytecode": "0x60806040526001805534801561001457600080fd5b5061122a806100246000396000f3fe608060405234801561001057600080fd5b50600436106100625760003560e01c80630989042f146100675780630c4aa59d146100905780634de91a63146100a5578063920e2621146100bc578063a7fede55146100cf578063c25f5597146100f5575b600080fd5b61007a610075366004610a31565b610108565b6040516100879190610b67565b60405180910390f35b6100a361009e366004610c53565b61049b565b005b6100ae60015481565b604051908152602001610087565b6100a36100ca366004610c8e565b610533565b6100e26100dd366004610a31565b6105b7565b6040516100879796959493929190610cb1565b6100ae610103366004610f13565b61078d565b6101106108ae565b600154821061013a5760405162461bcd60e51b815260040161013190611044565b60405180910390fd5b600082815260208181526040918290208251610120810190935280548352600181018054919284019161016c9061106e565b80601f01602080910402602001604051908101604052809291908181526020018280546101989061106e565b80156101e55780601f106101ba576101008083540402835291602001916101e5565b820191906000526020600020905b8154815290600101906020018083116101c857829003601f168201915b50505050508152602001600282015481526020016003820180546102089061106e565b80601f01602080910402602001604051908101604052809291908181526020018280546102349061106e565b80156102815780601f1061025657610100808354040283529160200191610281565b820191906000526020600020905b81548152906001019060200180831161026457829003601f168201915b505050505081526020016004820154815260200160058201805480602002602001604051908101604052809291908181526020016000905b828210156103655783829060005260206000200180546102d89061106e565b80601f01602080910402602001604051908101604052809291908181526020018280546103049061106e565b80156103515780601f1061032657610100808354040283529160200191610351565b820191906000526020600020905b81548152906001019060200180831161033457829003601f168201915b5050505050815260200190600101906102b9565b50505050815260200160068201805461037d9061106e565b80601f01602080910402602001604051908101604052809291908181526020018280546103a99061106e565b80156103f65780601f106103cb576101008083540402835291602001916103f6565b820191906000526020600020905b8154815290600101906020018083116103d957829003601f168201915b5050509183525050600782015460209091019060ff16600481111561041d5761041d610aea565b600481111561042e5761042e610aea565b81526020016008820180548060200260200160405190810160405280929190818152602001828054801561048b57602002820191906000526020600020905b81546001600160a01b0316815260019091019060200180831161046d575b5050505050815250509050919050565b60015482106104bc5760405162461bcd60e51b815260040161013190611044565b60008281526020818152604080832060080180546001810182559084529282902090920180546001600160a01b0319166001600160a01b038516908117909155915191825283917f5345efacb239f45e11e524c60cb40e63e823fc9cacfd39b40209dad4309942d291015b60405180910390a25050565b60015482106105545760405162461bcd60e51b815260040161013190611044565b6000828152602081905260409020600701805482919060ff1916600183600481111561058257610582610aea565b0217905550817fb8a3401adfc11253c3aff18e4b48103cec45c852b9afc487c23f32e26746242c8260405161052791906110a8565b600060208190529081526040902080546001820180549192916105d99061106e565b80601f01602080910402602001604051908101604052809291908181526020018280546106059061106e565b80156106525780601f1061062757610100808354040283529160200191610652565b820191906000526020600020905b81548152906001019060200180831161063557829003601f168201915b50505050509080600201549080600301805461066d9061106e565b80601f01602080910402602001604051908101604052809291908181526020018280546106999061106e565b80156106e65780601f106106bb576101008083540402835291602001916106e6565b820191906000526020600020905b8154815290600101906020018083116106c957829003601f168201915b5050505050908060040154908060060180546107019061106e565b80601f016020809104026020016040519081016040528092919081815260200182805461072d9061106e565b801561077a5780601f1061074f5761010080835404028352916020019161077a565b820191906000526020600020905b81548152906001019060200180831161075d57829003601f168201915b5050506007909301549192505060ff1687565b60018054600091829190826107a1836110bc565b90915550600060e08501819052818152602081815260409091208551815590850151919250849160018201906107d79082611134565b5060408201516002820155606082015160038201906107f69082611134565b506080820151600482015560a0820151805161081c91600584019160209091019061090b565b5060c082015160068201906108319082611134565b5060e082015160078201805460ff1916600183600481111561085557610855610aea565b02179055506101008201518051610876916008840191602090910190610961565b5050835160405190915082907f584fd78585a21604c3667493c80231e4cd4606ed01dc85633a766106f93fe2cc90600090a392915050565b60405180610120016040528060008152602001606081526020016000815260200160608152602001600081526020016060815260200160608152602001600060048111156108fe576108fe610aea565b8152602001606081525090565b828054828255906000526020600020908101928215610951579160200282015b8281111561095157825182906109419082611134565b509160200191906001019061092b565b5061095d9291506109c2565b5090565b8280548282559060005260206000209081019282156109b6579160200282015b828111156109b657825182546001600160a01b0319166001600160a01b03909116178255602090920191600190910190610981565b5061095d9291506109df565b8082111561095d5760006109d682826109f4565b506001016109c2565b5b8082111561095d57600081556001016109e0565b508054610a009061106e565b6000825580601f10610a10575050565b601f016020900490600052602060002090810190610a2e91906109df565b50565b600060208284031215610a4357600080fd5b5035919050565b6000815180845260005b81811015610a7057602081850181015186830182015201610a54565b506000602082860101526020601f19601f83011685010191505092915050565b60008282518085526020808601955060208260051b8401016020860160005b84811015610add57601f19868403018952610acb838351610a4a565b98840198925090830190600101610aaf565b5090979650505050505050565b634e487b7160e01b600052602160045260246000fd5b60058110610b1e57634e487b7160e01b600052602160045260246000fd5b9052565b60008151808452602080850194506020840160005b83811015610b5c5781516001600160a01b031687529582019590820190600101610b37565b509495945050505050565b602081528151602082015260006020830151610120806040850152610b90610140850183610a4a565b9150604085015160608501526060850151601f1980868503016080870152610bb88483610a4a565b9350608087015160a087015260a08701519150808685030160c0870152610bdf8483610a90565b935060c08701519150808685030160e0870152610bfc8483610a4a565b935060e08701519150610100610c1481880184610b00565b870151868503909101838701529050610c2d8382610b22565b9695505050505050565b80356001600160a01b0381168114610c4e57600080fd5b919050565b60008060408385031215610c6657600080fd5b82359150610c7660208401610c37565b90509250929050565b803560058110610c4e57600080fd5b60008060408385031215610ca157600080fd5b82359150610c7660208401610c7f565b87815260e060208201526000610cca60e0830189610a4a565b8760408401528281036060840152610ce28188610a4a565b905085608084015282810360a0840152610cfc8186610a4a565b915050610d0c60c0830184610b00565b98975050505050505050565b634e487b7160e01b600052604160045260246000fd5b604051610120810167ffffffffffffffff81118282101715610d5257610d52610d18565b60405290565b604051601f8201601f1916810167ffffffffffffffff81118282101715610d8157610d81610d18565b604052919050565b600082601f830112610d9a57600080fd5b813567ffffffffffffffff811115610db457610db4610d18565b610dc7601f8201601f1916602001610d58565b818152846020838601011115610ddc57600080fd5b816020850160208301376000918101602001919091529392505050565b600067ffffffffffffffff821115610e1357610e13610d18565b5060051b60200190565b600082601f830112610e2e57600080fd5b81356020610e43610e3e83610df9565b610d58565b82815260059290921b84018101918181019086841115610e6257600080fd5b8286015b84811015610ea257803567ffffffffffffffff811115610e865760008081fd5b610e948986838b0101610d89565b845250918301918301610e66565b509695505050505050565b600082601f830112610ebe57600080fd5b81356020610ece610e3e83610df9565b8083825260208201915060208460051b870101935086841115610ef057600080fd5b602086015b84811015610ea257610f0681610c37565b8352918301918301610ef5565b600060208284031215610f2557600080fd5b813567ffffffffffffffff80821115610f3d57600080fd5b908301906101208286031215610f5257600080fd5b610f5a610d2e565b82358152602083013582811115610f7057600080fd5b610f7c87828601610d89565b60208301525060408301356040820152606083013582811115610f9e57600080fd5b610faa87828601610d89565b6060830152506080830135608082015260a083013582811115610fcc57600080fd5b610fd887828601610e1d565b60a08301525060c083013582811115610ff057600080fd5b610ffc87828601610d89565b60c08301525061100e60e08401610c7f565b60e0820152610100808401358381111561102757600080fd5b61103388828701610ead565b918301919091525095945050505050565b60208082526010908201526f125b9d985b1a590818985d18da08125160821b604082015260600190565b600181811c9082168061108257607f821691505b6020821081036110a257634e487b7160e01b600052602260045260246000fd5b50919050565b602081016110b68284610b00565b92915050565b6000600182016110dc57634e487b7160e01b600052601160045260246000fd5b5060010190565b601f82111561112f576000816000526020600020601f850160051c8101602086101561110c5750805b601f850160051c820191505b8181101561112b57828155600101611118565b5050505b505050565b815167ffffffffffffffff81111561114e5761114e610d18565b6111628161115c845461106e565b846110e3565b602080601f831160018114611197576000841561117f5750858301515b600019600386901b1c1916600185901b17855561112b565b600085815260208120601f198616915b828110156111c6578886015182559484019460019091019084016111a7565b50858210156111e45787850151600019600388901b60f8161c191681555b5050505050600190811b0190555056fea264697066735822122071abf2eb661c74d7e06b7656f1d3a27fa629382f2fa42a0d50a4724a7ee7216a64736f6c63430008180033",
  "devdoc": {
    "kind": "dev",
    "methods": {},
    "version": 1
  },
  "userdoc": {
    "kind": "user",
    "methods": {},
    "version": 1
  },
  "storageLayout": {
    "storage": [
      {
        "astId": 9269,
        "contract": "contracts/supply-chain/ProductRegistry.sol:ProductRegistry",
        "label": "productBatches",
        "offset": 0,
        "slot": "0",
        "type": "t_mapping(t_uint256,t_struct(ProductBatch)8964_storage)"
      },
      {
        "astId": 9272,
        "contract": "contracts/supply-chain/ProductRegistry.sol:ProductRegistry",
        "label": "nextProductId",
        "offset": 0,
        "slot": "1",
        "type": "t_uint256"
      }
    ],
    "types": {
      "t_address": {
        "encoding": "inplace",
        "label": "address",
        "numberOfBytes": "20"
      },
      "t_array(t_address)dyn_storage": {
        "base": "t_address",
        "encoding": "dynamic_array",
        "label": "address[]",
        "numberOfBytes": "32"
      },
      "t_array(t_string_storage)dyn_storage": {
        "base": "t_string_storage",
        "encoding": "dynamic_array",
        "label": "string[]",
        "numberOfBytes": "32"
      },
      "t_enum(ProductStatus)8942": {
        "encoding": "inplace",
        "label": "enum IProductRegistry.ProductStatus",
        "numberOfBytes": "1"
      },
      "t_mapping(t_uint256,t_struct(ProductBatch)8964_storage)": {
        "encoding": "mapping",
        "key": "t_uint256",
        "label": "mapping(uint256 => struct IProductRegistry.ProductBatch)",
        "numberOfBytes": "32",
        "value": "t_struct(ProductBatch)8964_storage"
      },
      "t_string_storage": {
        "encoding": "bytes",
        "label": "string",
        "numberOfBytes": "32"
      },
      "t_struct(ProductBatch)8964_storage": {
        "encoding": "inplace",
        "label": "struct IProductRegistry.ProductBatch",
        "members": [
          {
            "astId": 8944,
            "contract": "contracts/supply-chain/ProductRegistry.sol:ProductRegistry",
            "label": "farmId",
            "offset": 0,
            "slot": "0",
            "type": "t_uint256"
          },
          {
            "astId": 8946,
            "contract": "contracts/supply-chain/ProductRegistry.sol:ProductRegistry",
            "label": "productType",
            "offset": 0,
            "slot": "1",
            "type": "t_string_storage"
          },
          {
            "astId": 8948,
            "contract": "contracts/supply-chain/ProductRegistry.sol:ProductRegistry",
            "label": "quantity",
            "offset": 0,
            "slot": "2",
            "type": "t_uint256"
          },
          {
            "astId": 8950,
            "contract": "contracts/supply-chain/ProductRegistry.sol:ProductRegistry",
            "label": "unit",
            "offset": 0,
            "slot": "3",
            "type": "t_string_storage"
          },
          {
            "astId": 8952,
            "contract": "contracts/supply-chain/ProductRegistry.sol:ProductRegistry",
            "label": "harvestDate",
            "offset": 0,
            "slot": "4",
            "type": "t_uint256"
          },
          {
            "astId": 8955,
            "contract": "contracts/supply-chain/ProductRegistry.sol:ProductRegistry",
            "label": "certifications",
            "offset": 0,
            "slot": "5",
            "type": "t_array(t_string_storage)dyn_storage"
          },
          {
            "astId": 8957,
            "contract": "contracts/supply-chain/ProductRegistry.sol:ProductRegistry",
            "label": "additionalInfo",
            "offset": 0,
            "slot": "6",
            "type": "t_string_storage"
          },
          {
            "astId": 8960,
            "contract": "contracts/supply-chain/ProductRegistry.sol:ProductRegistry",
            "label": "status",
            "offset": 0,
            "slot": "7",
            "type": "t_enum(ProductStatus)8942"
          },
          {
            "astId": 8963,
            "contract": "contracts/supply-chain/ProductRegistry.sol:ProductRegistry",
            "label": "supplyChainActors",
            "offset": 0,
            "slot": "8",
            "type": "t_array(t_address)dyn_storage"
          }
        ],
        "numberOfBytes": "288"
      },
      "t_uint256": {
        "encoding": "inplace",
        "label": "uint256",
        "numberOfBytes": "32"
      }
    }
  }
}